DNI 0000000024283493MAZA AUGUSTO                            19750313MASCDIV  ME  19990901ETTECNICO SUPERIOR EN PROGRAMACI20242834934R90  1        03214566896     1
DNI 0000000050722015MAZA FLORENTINA                         20101209FEM SOL  ME  20190101ESBACHILLER CONTABLE            20507220157R90  2        15789547963     1
DNI 0000000030456789GONZALEZ CARLOS                         19880915MASCSOL  ME  20051201ESBACHILLER                     20304567894R90  125707   7894563621444   1
